{
  "_format": "hh-sol-artifact-1",
  "contractName": "Voting",
  "sourceName": "contracts/Voting.sol",
  "abi": [
    {
      "inputs": [],
      "stateMutability": "nonpayable",
      "type": "constructor"
    },
    {
      "anonymous": false,
      "inputs": [
        {
          "indexed": true,
          "internalType": "uint256",
          "name": "candidateId",
          "type": "uint256"
        },
        {
          "indexed": false,
          "internalType": "string",
          "name": "name",
          "type": "string"
        },
        {
          "indexed": false,
          "internalType": "uint256",
          "name": "timestamp",
          "type": "uint256"
        }
      ],
      "name": "CandidateAdded",
      "type": "event"
    },
    {
      "anonymous": false,
      "inputs": [
        {
          "indexed": true,
          "internalType": "address",
          "name": "voter",
          "type": "address"
        },
        {
          "indexed": true,
          "internalType": "uint256",
          "name": "candidateId",
          "type": "uint256"
        },
        {
          "indexed": false,
          "internalType": "uint256",
          "name": "timestamp",
          "type": "uint256"
        }
      ],
      "name": "Voted",
      "type": "event"
    },
    {
      "anonymous": false,
      "inputs": [
        {
          "indexed": false,
          "internalType": "uint256",
          "name": "timestamp",
          "type": "uint256"
        }
      ],
      "name": "VotingEnded",
      "type": "event"
    },
    {
      "anonymous": false,
      "inputs": [
        {
          "indexed": false,
          "internalType": "uint256",
          "name": "timestamp",
          "type": "uint256"
        }
      ],
      "name": "VotingStarted",
      "type": "event"
    },
    {
      "inputs": [
        {
          "internalType": "string",
          "name": "_name",
          "type": "string"
        }
      ],
      "name": "addCandidate",
      "outputs": [],
      "stateMutability": "nonpayable",
      "type": "function"
    },
    {
      "inputs": [
        {
          "internalType": "uint256",
          "name": "",
          "type": "uint256"
        }
      ],
      "name": "candidates",
      "outputs": [
        {
          "internalType": "uint256",
          "name": "id",
          "type": "uint256"
        },
        {
          "internalType": "string",
          "name": "name",
          "type": "string"
        },
        {
          "internalType": "uint256",
          "name": "voteCount",
          "type": "uint256"
        }
      ],
      "stateMutability": "view",
      "type": "function"
    },
    {
      "inputs": [],
      "name": "candidatesCount",
      "outputs": [
        {
          "internalType": "uint256",
          "name": "",
          "type": "uint256"
        }
      ],
      "stateMutability": "view",
      "type": "function"
    },
    {
      "inputs": [],
      "name": "endVoting",
      "outputs": [],
      "stateMutability": "nonpayable",
      "type": "function"
    },
    {
      "inputs": [],
      "name": "getCandidates",
      "outputs": [
        {
          "components": [
            {
              "internalType": "uint256",
              "name": "id",
              "type": "uint256"
            },
            {
              "internalType": "string",
              "name": "name",
              "type": "string"
            },
            {
              "internalType": "uint256",
              "name": "voteCount",
              "type": "uint256"
            }
          ],
          "internalType": "struct Voting.Candidate[]",
          "name": "",
          "type": "tuple[]"
        }
      ],
      "stateMutability": "view",
      "type": "function"
    },
    {
      "inputs": [],
      "name": "getVotingStatus",
      "outputs": [
        {
          "internalType": "bool",
          "name": "active",
          "type": "bool"
        },
        {
          "internalType": "uint256",
          "name": "totalVoteCount",
          "type": "uint256"
        },
        {
          "internalType": "uint256",
          "name": "candidateCount",
          "type": "uint256"
        }
      ],
      "stateMutability": "view",
      "type": "function"
    },
    {
      "inputs": [
        {
          "internalType": "address",
          "name": "_voter",
          "type": "address"
        }
      ],
      "name": "hasVoted",
      "outputs": [
        {
          "internalType": "bool",
          "name": "",
          "type": "bool"
        }
      ],
      "stateMutability": "view",
      "type": "function"
    },
    {
      "inputs": [],
      "name": "owner",
      "outputs": [
        {
          "internalType": "address",
          "name": "",
          "type": "address"
        }
      ],
      "stateMutability": "view",
      "type": "function"
    },
    {
      "inputs": [],
      "name": "startVoting",
      "outputs": [],
      "stateMutability": "nonpayable",
      "type": "function"
    },
    {
      "inputs": [],
      "name": "totalVotes",
      "outputs": [
        {
          "internalType": "uint256",
          "name": "",
          "type": "uint256"
        }
      ],
      "stateMutability": "view",
      "type": "function"
    },
    {
      "inputs": [
        {
          "internalType": "uint256",
          "name": "_candidateId",
          "type": "uint256"
        }
      ],
      "name": "vote",
      "outputs": [],
      "stateMutability": "nonpayable",
      "type": "function"
    },
    {
      "inputs": [
        {
          "internalType": "address",
          "name": "",
          "type": "address"
        }
      ],
      "name": "voters",
      "outputs": [
        {
          "internalType": "bool",
          "name": "",
          "type": "bool"
        }
      ],
      "stateMutability": "view",
      "type": "function"
    },
    {
      "inputs": [],
      "name": "votingActive",
      "outputs": [
        {
          "internalType": "bool",
          "name": "",
          "type": "bool"
        }
      ],
      "stateMutability": "view",
      "type": "function"
    }
  ],
  "bytecode": "0x60806040523480156200001157600080fd5b506004805460ff60a01b1933166001600160a81b031990911617600160a01b17905560408051808201909152600b81526a43616e646964617465203160a81b60208201526200006090620000c6565b60408051808201909152600b81526a21b0b73234b230ba32901960a91b60208201526200008d90620000c6565b6040514281527fcf33babc496bb6dc2942b39cb7b75766bbbadf7da50d176ff8c513e9911402399060200160405180910390a16200041a565b6004546001600160a01b03163314620001305760405162461bcd60e51b815260206004820152602160248201527f4f6e6c79206f776e65722063616e2063616c6c20746869732066756e6374696f6044820152603760f91b60648201526084015b60405180910390fd5b6000815111620001835760405162461bcd60e51b815260206004820152601e60248201527f43616e646964617465206e616d652063616e6e6f7420626520656d7074790000604482015260640162000127565b6002805490600062000195836200022a565b90915550506040805160608101825260025480825260208083018581526000848601819052928352908290529290208151815591519091906001820190620001de9082620002f7565b506040918201516002918201555490517fc0a81c9aad7f882e7dd72db314924227026255cc5ad0164435df572dec8c804d906200021f9084904290620003c3565b60405180910390a250565b6000600182016200024b57634e487b7160e01b600052601160045260246000fd5b5060010190565b634e487b7160e01b600052604160045260246000fd5b600181811c908216806200027d57607f821691505b6020821081036200029e57634e487b7160e01b600052602260045260246000fd5b50919050565b601f821115620002f257600081815260208120601f850160051c81016020861015620002cd5750805b601f850160051c820191505b81811015620002ee57828155600101620002d9565b5050505b505050565b81516001600160401b0381111562000313576200031362000252565b6200032b8162000324845462000268565b84620002a4565b602080601f8311600181146200036357600084156200034a5750858301515b600019600386901b1c1916600185901b178555620002ee565b600085815260208120601f198616915b82811015620003945788860151825594840194600190910190840162000373565b5085821015620003b35787850151600019600388901b60f8161c191681555b5050505050600190811b01905550565b604081526000835180604084015260005b81811015620003f35760208187018101516060868401015201620003d4565b506000606082850101526060601f19601f8301168401019150508260208301529392505050565b610cc9806200042a6000396000f3fe608060405234801561001057600080fd5b50600436106100cf5760003560e01c80633477ee2e1161008c578063581c281c11610066578063581c281c146101b45780638da5cb5b146101e6578063a3ec138d14610211578063c3403ddf1461023457600080fd5b80633477ee2e1461016b578063408e27271461018d578063462e91ec146101a157600080fd5b80630121b93f146100d457806306a49fce146100e957806309eef43e146101075780630d15fd77146101435780631ec6b60a1461015a5780632d35a8a214610162575b600080fd5b6100e76100e236600461088f565b61023c565b005b6100f16103bc565b6040516100fe91906108ee565b60405180910390f35b61013361011536600461096f565b6001600160a01b031660009081526001602052604090205460ff1690565b60405190151581526020016100fe565b61014c60035481565b6040519081526020016100fe565b6100e761053e565b61014c60025481565b61017e61017936600461088f565b610611565b6040516100fe9392919061099f565b60045461013390600160a01b900460ff1681565b6100e76101af3660046109de565b6106bc565b600454600354600254600160a01b90920460ff16916040805193151584526020840192909252908201526060016100fe565b6004546101f9906001600160a01b031681565b6040516001600160a01b0390911681526020016100fe565b61013361021f36600461096f565b60016020526000908152604090205460ff1681565b6100e76107d8565b600454600160a01b900460ff166102915760405162461bcd60e51b8152602060048201526014602482015273566f74696e67206973206e6f742061637469766560601b60448201526064015b60405180910390fd5b3360009081526001602052604090205460ff16156102e15760405162461bcd60e51b815260206004820152600d60248201526c105b1c9958591e481d9bdd1959609a1b6044820152606401610288565b6000811180156102f357506002548111155b6103335760405162461bcd60e51b8152602060048201526011602482015270496e76616c69642063616e64696461746560781b6044820152606401610288565b336000908152600160208181526040808420805460ff1916909317909255838352829052812060020180549161036883610aa5565b90915550506003805490600061037d83610aa5565b9091555050604051428152819033907fea66f58e474bc09f580000e81f31b334d171db387d0c6098ba47bd897741679b9060200160405180910390a350565b6060600060025467ffffffffffffffff8111156103db576103db6109c8565b60405190808252806020026020018201604052801561043057816020015b61041d60405180606001604052806000815260200160608152602001600081525090565b8152602001906001900390816103f95790505b50905060015b6002548111610538576000818152602081815260409182902082516060810190935280548352600181018054919284019161047090610abe565b80601f016020809104026020016040519081016040528092919081815260200182805461049c90610abe565b80156104e95780601f106104be576101008083540402835291602001916104e9565b820191906000526020600020905b8154815290600101906020018083116104cc57829003601f168201915b505050505081526020016002820154815250508260018361050a9190610af2565b8151811061051a5761051a610b0b565b6020026020010181905250808061053090610aa5565b915050610436565b50919050565b6004546001600160a01b031633146105685760405162461bcd60e51b815260040161028890610b21565b600454600160a01b900460ff16156105c25760405162461bcd60e51b815260206004820152601860248201527f566f74696e6720697320616c72656164792061637469766500000000000000006044820152606401610288565b6004805460ff60a01b1916600160a01b1790556040517fcf33babc496bb6dc2942b39cb7b75766bbbadf7da50d176ff8c513e991140239906106079042815260200190565b60405180910390a1565b6000602081905290815260409020805460018201805491929161063390610abe565b80601f016020809104026020016040519081016040528092919081815260200182805461065f90610abe565b80156106ac5780601f10610681576101008083540402835291602001916106ac565b820191906000526020600020905b81548152906001019060200180831161068f57829003601f168201915b5050505050908060020154905083565b6004546001600160a01b031633146106e65760405162461bcd60e51b815260040161028890610b21565b60008151116107375760405162461bcd60e51b815260206004820152601e60248201527f43616e646964617465206e616d652063616e6e6f7420626520656d70747900006044820152606401610288565b6002805490600061074783610aa5565b9091555050604080516060810182526002548082526020808301858152600084860181905292835290829052929020815181559151909190600182019061078e9082610bb1565b506040918201516002918201555490517fc0a81c9aad7f882e7dd72db314924227026255cc5ad0164435df572dec8c804d906107cd9084904290610c71565b60405180910390a250565b6004546001600160a01b031633146108025760405162461bcd60e51b815260040161028890610b21565b600454600160a01b900460ff166108525760405162461bcd60e51b8152602060048201526014602482015273566f74696e67206973206e6f742061637469766560601b6044820152606401610288565b6004805460ff60a01b191690556040514281527f81eb7415440ff8e6c8e92606fd3b0e5e6a5c99ea90cdb63b41aec54e897312b390602001610607565b6000602082840312156108a157600080fd5b5035919050565b6000815180845260005b818110156108ce576020818501810151868301820152016108b2565b506000602082860101526020601f19601f83011685010191505092915050565b60006020808301818452808551808352604092508286019150828160051b87010184880160005b8381101561096157603f19898403018552815160608151855288820151818a870152610943828701826108a8565b92890151958901959095525094870194925090860190600101610915565b509098975050505050505050565b60006020828403121561098157600080fd5b81356001600160a01b038116811461099857600080fd5b9392505050565b8381526060602082015260006109b860608301856108a8565b9050826040830152949350505050565b634e487b7160e01b600052604160045260246000fd5b6000602082840312156109f057600080fd5b813567ffffffffffffffff80821115610a0857600080fd5b818401915084601f830112610a1c57600080fd5b813581811115610a2e57610a2e6109c8565b604051601f8201601f19908116603f01168101908382118183101715610a5657610a566109c8565b81604052828152876020848701011115610a6f57600080fd5b826020860160208301376000928101602001929092525095945050505050565b634e487b7160e01b600052601160045260246000fd5b600060018201610ab757610ab7610a8f565b5060010190565b600181811c90821680610ad257607f821691505b60208210810361053857634e487b7160e01b600052602260045260246000fd5b81810381811115610b0557610b05610a8f565b92915050565b634e487b7160e01b600052603260045260246000fd5b60208082526021908201527f4f6e6c79206f776e65722063616e2063616c6c20746869732066756e6374696f6040820152603760f91b606082015260800190565b601f821115610bac57600081815260208120601f850160051c81016020861015610b895750805b601f850160051c820191505b81811015610ba857828155600101610b95565b5050505b505050565b815167ffffffffffffffff811115610bcb57610bcb6109c8565b610bdf81610bd98454610abe565b84610b62565b602080601f831160018114610c145760008415610bfc5750858301515b600019600386901b1c1916600185901b178555610ba8565b600085815260208120601f198616915b82811015610c4357888601518255948401946001909101908401610c24565b5085821015610c615787850151600019600388901b60f8161c191681555b5050505050600190811b01905550565b604081526000610c8460408301856108a8565b9050826020830152939250505056fea26469706673582212202efdabe40dbc200d045e126bab8cf7e5eda50ef1ab0d2ed1ca17b3d27b821fac64736f6c63430008130033",
  "linkReferences": {},
  "deployedLinkReferences": {}
}